:020000040800F2
:1000000000500020D10100080000000000000000A6
:1000100000000000000000000000000000000000E0
:1000200000000000000000000000000000000000D0
:10003000000000000000000000000000870200082F
:1000400000000000000000000000000000000000B0
:1000500000000000000000000000000000000000A0
:100060000000000000000000000000000000000090
:100070000000000000000000000000000000000080
:100080000000000000000000000000000000000070
:100090000000000000000000000000000000000060
:1000A0000000000000000000000000000000000050
:1000B0000000000000000000000000000000000040
:1000C0000000000000000000000000000000000030
:1000D0000000000000000000000000000000000020
:1000E0000000000000000000000000000000000010
:1000F0000000000000000000000000000000000000
:1001000000000000000000000000000000000000EF
:1001100000000000000000000000000000000000DF
:1001200000000000000000000000000000000000CF
:1001300000000000000000000000000000000000BF
:1001400000000000000000000000000000000000AF
:10015000000000000000000000000000000000009F
:10016000000000000000000000000000000000008F
:10017000000000000000000000000000000000007F
:10018000000000000000000000000000000000006F
:10019000000000000000000000000000000000005F
:1001A000000000000000000000000000000000004F
:1001B000000000000000000000000000000000003F
:1001C000000000000000000000000000000000002F
:1001D00032483349334A6FF07F430B60002313608A
:1001E00007230360002500262F480168012424010D
:1001F000214301602D480168012464052143012445
:100200002405E44321400124E405E4432140012482
:10021000A405E44321400160234801680124A400AF
:10022000214301602248016801246405214301241F
:100230002405E44321400124E405E4432140012452
:10024000A405E443214001601A481B4908601B488B
:100250001B4901601B481A4908601B481649016088
:100260001A481549016030BFFDE7194801680124AB
:10027000640361400160704716480168012464010D
:1002800061400160704720B5013510480168496838
:10029000016000680168884720BD704710E000E0F9
:1002A00014E000E018E000E01810024004100140E3
:1002B000000801406B02000800100020041000201C
:1002C00008100020790200080C10002010100020F7
:0802D0000C1001400C08014074
:0400000508000000EF
:00000001FF
